{
  "_format": "hh3-artifact-1",
  "contractName": "Circle",
  "sourceName": "contracts/Circle.sol",
  "abi": [
    {
      "inputs": [
        {
          "internalType": "uint256",
          "name": "_circleId",
          "type": "uint256"
        },
        {
          "internalType": "string",
          "name": "_circleName",
          "type": "string"
        },
        {
          "internalType": "address",
          "name": "_admin",
          "type": "address"
        },
        {
          "internalType": "address",
          "name": "_delegationManager",
          "type": "address"
        },
        {
          "internalType": "string",
          "name": "_adminTokenName",
          "type": "string"
        },
        {
          "internalType": "address",
          "name": "_adminTokenAddress",
          "type": "address"
        },
        {
          "internalType": "uint256",
          "name": "_adminAmountGiven",
          "type": "uint256"
        },
        {
          "internalType": "uint256",
          "name": "_adminExpiresAt",
          "type": "uint256"
        }
      ],
      "stateMutability": "nonpayable",
      "type": "constructor"
    },
    {
      "inputs": [],
      "name": "AlreadyMember",
      "type": "error"
    },
    {
      "inputs": [],
      "name": "InvalidAddress",
      "type": "error"
    },
    {
      "inputs": [],
      "name": "InvalidAmount",
      "type": "error"
    },
    {
      "inputs": [],
      "name": "InvalidCode",
      "type": "error"
    },
    {
      "inputs": [],
      "name": "InvalidName",
      "type": "error"
    },
    {
      "inputs": [],
      "name": "NotAdmin",
      "type": "error"
    },
    {
      "inputs": [],
      "name": "NotMember",
      "type": "error"
    },
    {
      "anonymous": false,
      "inputs": [
        {
          "indexed": true,
          "internalType": "uint256",
          "name": "a",
          "type": "uint256"
        },
        {
          "indexed": true,
          "internalType": "uint256",
          "name": "b",
          "type": "uint256"
        },
        {
          "indexed": true,
          "internalType": "bytes32",
          "name": "c",
          "type": "bytes32"
        },
        {
          "indexed": false,
          "internalType": "uint256",
          "name": "d",
          "type": "uint256"
        }
      ],
      "name": "E2",
      "type": "event"
    },
    {
      "anonymous": false,
      "inputs": [
        {
          "indexed": true,
          "internalType": "uint256",
          "name": "a",
          "type": "uint256"
        },
        {
          "indexed": true,
          "internalType": "address",
          "name": "b",
          "type": "address"
        },
        {
          "indexed": true,
          "internalType": "uint256",
          "name": "c",
          "type": "uint256"
        },
        {
          "indexed": false,
          "internalType": "string",
          "name": "d",
          "type": "string"
        },
        {
          "indexed": false,
          "internalType": "uint256",
          "name": "e",
          "type": "uint256"
        },
        {
          "indexed": false,
          "internalType": "uint256",
          "name": "f",
          "type": "uint256"
        }
      ],
      "name": "E3",
      "type": "event"
    },
    {
      "anonymous": false,
      "inputs": [
        {
          "indexed": true,
          "internalType": "uint256",
          "name": "a",
          "type": "uint256"
        },
        {
          "indexed": true,
          "internalType": "address",
          "name": "b",
          "type": "address"
        },
        {
          "indexed": false,
          "internalType": "string",
          "name": "c",
          "type": "string"
        },
        {
          "indexed": false,
          "internalType": "uint256",
          "name": "d",
          "type": "uint256"
        },
        {
          "indexed": false,
          "internalType": "uint256",
          "name": "e",
          "type": "uint256"
        }
      ],
      "name": "E4",
      "type": "event"
    },
    {
      "anonymous": false,
      "inputs": [
        {
          "indexed": true,
          "internalType": "uint256",
          "name": "a",
          "type": "uint256"
        },
        {
          "indexed": true,
          "internalType": "address",
          "name": "b",
          "type": "address"
        }
      ],
      "name": "E5",
      "type": "event"
    },
    {
      "anonymous": false,
      "inputs": [
        {
          "indexed": true,
          "internalType": "uint256",
          "name": "a",
          "type": "uint256"
        },
        {
          "indexed": true,
          "internalType": "uint256",
          "name": "b",
          "type": "uint256"
        }
      ],
      "name": "E6",
      "type": "event"
    },
    {
      "anonymous": false,
      "inputs": [
        {
          "indexed": true,
          "internalType": "uint256",
          "name": "a",
          "type": "uint256"
        },
        {
          "indexed": true,
          "internalType": "address",
          "name": "b",
          "type": "address"
        },
        {
          "indexed": true,
          "internalType": "address",
          "name": "c",
          "type": "address"
        },
        {
          "indexed": false,
          "internalType": "address",
          "name": "d",
          "type": "address"
        },
        {
          "indexed": false,
          "internalType": "uint256",
          "name": "e",
          "type": "uint256"
        },
        {
          "indexed": false,
          "internalType": "address",
          "name": "f",
          "type": "address"
        }
      ],
      "name": "E7",
      "type": "event"
    },
    {
      "inputs": [],
      "name": "admin",
      "outputs": [
        {
          "internalType": "address",
          "name": "",
          "type": "address"
        }
      ],
      "stateMutability": "view",
      "type": "function"
    },
    {
      "inputs": [],
      "name": "circleId",
      "outputs": [
        {
          "internalType": "uint256",
          "name": "",
          "type": "uint256"
        }
      ],
      "stateMutability": "view",
      "type": "function"
    },
    {
      "inputs": [],
      "name": "circleName",
      "outputs": [
        {
          "internalType": "string",
          "name": "",
          "type": "string"
        }
      ],
      "stateMutability": "view",
      "type": "function"
    },
    {
      "inputs": [
        {
          "internalType": "bytes32",
          "name": "codeHash",
          "type": "bytes32"
        },
        {
          "internalType": "uint256",
          "name": "expiresAt",
          "type": "uint256"
        }
      ],
      "name": "createJoinCode",
      "outputs": [
        {
          "internalType": "uint256",
          "name": "codeId",
          "type": "uint256"
        }
      ],
      "stateMutability": "nonpayable",
      "type": "function"
    },
    {
      "inputs": [],
      "name": "delegationManager",
      "outputs": [
        {
          "internalType": "contract IDelegationManager",
          "name": "",
          "type": "address"
        }
      ],
      "stateMutability": "view",
      "type": "function"
    },
    {
      "inputs": [],
      "name": "getAllMembers",
      "outputs": [
        {
          "internalType": "address[]",
          "name": "",
          "type": "address[]"
        }
      ],
      "stateMutability": "view",
      "type": "function"
    },
    {
      "inputs": [],
      "name": "getAllMembersPermissions",
      "outputs": [
        {
          "internalType": "address[]",
          "name": "addresses",
          "type": "address[]"
        },
        {
          "internalType": "string[]",
          "name": "tokenNames",
          "type": "string[]"
        },
        {
          "internalType": "uint256[]",
          "name": "maxAmounts",
          "type": "uint256[]"
        },
        {
          "internalType": "uint256[]",
          "name": "expiryTimestamps",
          "type": "uint256[]"
        }
      ],
      "stateMutability": "view",
      "type": "function"
    },
    {
      "inputs": [],
      "name": "getAllMembersWithDetails",
      "outputs": [
        {
          "components": [
            {
              "internalType": "address",
              "name": "walletAddress",
              "type": "address"
            },
            {
              "components": [
                {
                  "internalType": "string",
                  "name": "tokenName",
                  "type": "string"
                },
                {
                  "internalType": "address",
                  "name": "tokenAddress",
                  "type": "address"
                },
                {
                  "internalType": "uint256",
                  "name": "amountGiven",
                  "type": "uint256"
                },
                {
                  "internalType": "uint256",
                  "name": "amountUsed",
                  "type": "uint256"
                },
                {
                  "internalType": "uint256",
                  "name": "amountLeft",
                  "type": "uint256"
                },
                {
                  "internalType": "uint256",
                  "name": "expiresAt",
                  "type": "uint256"
                },
                {
                  "internalType": "bytes",
                  "name": "permissionsContext",
                  "type": "bytes"
                }
              ],
              "internalType": "struct CircleTypes.Permission",
              "name": "permission",
              "type": "tuple"
            },
            {
              "internalType": "uint256",
              "name": "joinedAt",
              "type": "uint256"
            }
          ],
          "internalType": "struct CircleTypes.Member[]",
          "name": "members",
          "type": "tuple[]"
        }
      ],
      "stateMutability": "view",
      "type": "function"
    },
    {
      "inputs": [
        {
          "internalType": "uint256",
          "name": "codeId",
          "type": "uint256"
        }
      ],
      "name": "getJoinCode",
      "outputs": [
        {
          "components": [
            {
              "internalType": "uint256",
              "name": "codeId",
              "type": "uint256"
            },
            {
              "internalType": "bytes32",
              "name": "codeHash",
              "type": "bytes32"
            },
            {
              "internalType": "bool",
              "name": "isUsed",
              "type": "bool"
            },
            {
              "internalType": "uint256",
              "name": "createdAt",
              "type": "uint256"
            },
            {
              "internalType": "uint256",
              "name": "expiresAt",
              "type": "uint256"
            }
          ],
          "internalType": "struct CircleTypes.JoinCode",
          "name": "",
          "type": "tuple"
        }
      ],
      "stateMutability": "view",
      "type": "function"
    },
    {
      "inputs": [
        {
          "internalType": "address",
          "name": "memberAddress",
          "type": "address"
        }
      ],
      "name": "getMember",
      "outputs": [
        {
          "components": [
            {
              "internalType": "address",
              "name": "walletAddress",
              "type": "address"
            },
            {
              "components": [
                {
                  "internalType": "string",
                  "name": "tokenName",
                  "type": "string"
                },
                {
                  "internalType": "address",
                  "name": "tokenAddress",
                  "type": "address"
                },
                {
                  "internalType": "uint256",
                  "name": "amountGiven",
                  "type": "uint256"
                },
                {
                  "internalType": "uint256",
                  "name": "amountUsed",
                  "type": "uint256"
                },
                {
                  "internalType": "uint256",
                  "name": "amountLeft",
                  "type": "uint256"
                },
                {
                  "internalType": "uint256",
                  "name": "expiresAt",
                  "type": "uint256"
                },
                {
                  "internalType": "bytes",
                  "name": "permissionsContext",
                  "type": "bytes"
                }
              ],
              "internalType": "struct CircleTypes.Permission",
              "name": "permission",
              "type": "tuple"
            },
            {
              "internalType": "uint256",
              "name": "joinedAt",
              "type": "uint256"
            }
          ],
          "internalType": "struct CircleTypes.Member",
          "name": "member",
          "type": "tuple"
        }
      ],
      "stateMutability": "view",
      "type": "function"
    },
    {
      "inputs": [],
      "name": "getMemberCount",
      "outputs": [
        {
          "internalType": "uint256",
          "name": "",
          "type": "uint256"
        }
      ],
      "stateMutability": "view",
      "type": "function"
    },
    {
      "inputs": [
        {
          "internalType": "string",
          "name": "tokenName",
          "type": "string"
        }
      ],
      "name": "getMembersByToken",
      "outputs": [
        {
          "components": [
            {
              "internalType": "address",
              "name": "walletAddress",
              "type": "address"
            },
            {
              "components": [
                {
                  "internalType": "string",
                  "name": "tokenName",
                  "type": "string"
                },
                {
                  "internalType": "address",
                  "name": "tokenAddress",
                  "type": "address"
                },
                {
                  "internalType": "uint256",
                  "name": "amountGiven",
                  "type": "uint256"
                },
                {
                  "internalType": "uint256",
                  "name": "amountUsed",
                  "type": "uint256"
                },
                {
                  "internalType": "uint256",
                  "name": "amountLeft",
                  "type": "uint256"
                },
                {
                  "internalType": "uint256",
                  "name": "expiresAt",
                  "type": "uint256"
                },
                {
                  "internalType": "bytes",
                  "name": "permissionsContext",
                  "type": "bytes"
                }
              ],
              "internalType": "struct CircleTypes.Permission",
              "name": "permission",
              "type": "tuple"
            },
            {
              "internalType": "uint256",
              "name": "joinedAt",
              "type": "uint256"
            }
          ],
          "internalType": "struct CircleTypes.Member[]",
          "name": "members",
          "type": "tuple[]"
        }
      ],
      "stateMutability": "view",
      "type": "function"
    },
    {
      "inputs": [
        {
          "internalType": "address",
          "name": "memberAddress",
          "type": "address"
        }
      ],
      "name": "isMember",
      "outputs": [
        {
          "internalType": "bool",
          "name": "",
          "type": "bool"
        }
      ],
      "stateMutability": "view",
      "type": "function"
    },
    {
      "inputs": [
        {
          "internalType": "uint256",
          "name": "codeId",
          "type": "uint256"
        },
        {
          "internalType": "bytes32",
          "name": "codeHash",
          "type": "bytes32"
        },
        {
          "internalType": "string",
          "name": "tokenName",
          "type": "string"
        },
        {
          "internalType": "address",
          "name": "tokenAddress",
          "type": "address"
        },
        {
          "internalType": "uint256",
          "name": "amountGiven",
          "type": "uint256"
        },
        {
          "internalType": "uint256",
          "name": "expiresAt",
          "type": "uint256"
        },
        {
          "internalType": "bytes",
          "name": "permissionsContext",
          "type": "bytes"
        }
      ],
      "name": "joinCircle",
      "outputs": [],
      "stateMutability": "nonpayable",
      "type": "function"
    },
    {
      "inputs": [
        {
          "internalType": "address",
          "name": "memberAddress",
          "type": "address"
        }
      ],
      "name": "removeMember",
      "outputs": [],
      "stateMutability": "nonpayable",
      "type": "function"
    },
    {
      "inputs": [
        {
          "internalType": "uint256",
          "name": "codeId",
          "type": "uint256"
        }
      ],
      "name": "revokeJoinCode",
      "outputs": [],
      "stateMutability": "nonpayable",
      "type": "function"
    },
    {
      "inputs": [
        {
          "internalType": "address",
          "name": "fromMember",
          "type": "address"
        },
        {
          "internalType": "address",
          "name": "tokenAddress",
          "type": "address"
        },
        {
          "internalType": "address",
          "name": "recipient",
          "type": "address"
        },
        {
          "internalType": "uint256",
          "name": "amount",
          "type": "uint256"
        }
      ],
      "name": "transferToken",
      "outputs": [],
      "stateMutability": "nonpayable",
      "type": "function"
    },
    {
      "inputs": [
        {
          "internalType": "address",
          "name": "memberAddress",
          "type": "address"
        },
        {
          "internalType": "string",
          "name": "newTokenName",
          "type": "string"
        },
        {
          "internalType": "address",
          "name": "newTokenAddress",
          "type": "address"
        },
        {
          "internalType": "uint256",
          "name": "amountChange",
          "type": "uint256"
        },
        {
          "internalType": "uint8",
          "name": "operationType",
          "type": "uint8"
        },
        {
          "internalType": "uint256",
          "name": "newExpiresAt",
          "type": "uint256"
        },
        {
          "internalType": "bytes",
          "name": "newPermissionsContext",
          "type": "bytes"
        }
      ],
      "name": "updateMemberPermission",
      "outputs": [],
      "stateMutability": "nonpayable",
      "type": "function"
    }
  ],
  "bytecode": "0x60c060405234801561000f575f5ffd5b5060405161304a38038061304a83398101604081905261002e916103be565b87878787878787876001600160a01b03861661005d5760405163e6c4247b60e01b815260040160405180910390fd5b6001600160a01b0385166100845760405163e6c4247b60e01b815260040160405180910390fd5b86515f036100a55760405163430f13b360e01b815260040160405180910390fd5b6001600160a01b0383166100cc5760405163e6c4247b60e01b815260040160405180910390fd5b815f036100ec5760405163162908e360e11b815260040160405180910390fd5b60808890525f6100fc88826104f2565b50600180546001600160a01b0319166001600160a01b038881169190911790915585811660a09081526040805160e0810182528781529286166020808501919091528382018690525f6060850181905260808501879052928401859052815190810190915290815260c08201526101756005888361018b565b50505050505050505050505050505050506105ac565b6001600160a01b0382166101b25760405163e6c4247b60e01b815260040160405180910390fd5b6001600160a01b038281165f9081526020859052604090205416156101ea576040516340803a5f60e11b815260040160405180910390fd5b604080516060810182526001600160a01b03848116808352602080840186815242858701525f92835290889052939020825181546001600160a01b031916921691909117815591518051919283929091906001830190819061024c90826104f2565b5060208201516001820180546001600160a01b0319166001600160a01b0390921691909117905560408201516002820155606082015160038201556080820151600482015560a0820151600582015560c082015160068201906102af90826104f2565b505050604091820151600890910155600180860180546001600160a01b039096165f8181526002909801602090815293882087905591860181558652942090920180546001600160a01b0319169093179092555050565b634e487b7160e01b5f52604160045260245ffd5b5f82601f830112610329575f5ffd5b81516001600160401b0381111561034257610342610306565b604051601f8201601f19908116603f011681016001600160401b038111828210171561037057610370610306565b604052818152838201602001851015610387575f5ffd5b8160208501602083015e5f918101602001919091529392505050565b80516001600160a01b03811681146103b9575f5ffd5b919050565b5f5f5f5f5f5f5f5f610100898b0312156103d6575f5ffd5b885160208a01519098506001600160401b038111156103f3575f5ffd5b6103ff8b828c0161031a565b97505061040e60408a016103a3565b955061041c60608a016103a3565b60808a01519095506001600160401b03811115610437575f5ffd5b6104438b828c0161031a565b94505061045260a08a016103a3565b60c08a015160e0909a0151989b979a5095989497939692505050565b600181811c9082168061048257607f821691505b6020821081036104a057634e487b7160e01b5f52602260045260245ffd5b50919050565b601f8211156104ed57805f5260205f20601f840160051c810160208510156104cb5750805b601f840160051c820191505b818110156104ea575f81556001016104d7565b50505b505050565b81516001600160401b0381111561050b5761050b610306565b61051f81610519845461046e565b846104a6565b6020601f821160018114610551575f831561053a5750848201515b5f19600385901b1c1916600184901b1784556104ea565b5f84815260208120601f198516915b828110156105805787850151825560209485019460019092019101610560565b508482101561059d57868401515f19600387901b60f8161c191681555b50505050600190811b01905550565b60805160a051612a4c6105fe5f395f8181610297015261058a01525f818161023001528181610a78015281816110100152818161128f0152818161176e01528181611bfa01526120520152612a4c5ff3fe608060405234801561000f575f5ffd5b50600436106100e4575f3560e01c80630b1ca49a146100e85780632ada2596146100fd5780632c54de4f1461012657806334be94d01461013957806339906ee81461014c57806377b842991461016c5780637c0f6b35146101c2578063947be96d146101d7578063997072f7146101f85780639a54976e14610200578063a230c52414610208578063c30db7461461022b578063cccf256014610252578063d51edb1514610267578063d8930dcb1461027a578063ea4d3c9b14610292578063f041098c146102d1578063f851a440146102e4575b5f5ffd5b6100fb6100f63660046121cb565b6102f7565b005b61011061010b3660046121cb565b610350565b60405161011d91906122b4565b60405180910390f35b6100fb6101343660046122c6565b610369565b6100fb6101473660046123b1565b610619565b61015f61015a366004612448565b610717565b60405161011d9190612479565b61017f61017a3660046124dc565b610724565b60405161011d91905f60a0820190508251825260208301516020830152604083015115156040830152606083015160608301526080830151608083015292915050565b6101ca610737565b60405161011d9190612536565b6101ea6101e5366004612548565b610748565b60405190815260200161011d565b6006546101ea565b61015f61076b565b61021b6102163660046121cb565b610777565b604051901515815260200161011d565b6101ea7f000000000000000000000000000000000000000000000000000000000000000081565b61025a610783565b60405161011d9190612568565b6100fb61027536600461257a565b61080e565b61028261087f565b60405161011d949392919061263b565b6102b97f000000000000000000000000000000000000000000000000000000000000000081565b6040516001600160a01b03909116815260200161011d565b6100fb6102df3660046124dc565b61089d565b6001546102b9906001600160a01b031681565b6001546001600160a01b0316331480159061031b5750336001600160a01b03821614155b1561033957604051637bfa4b9f60e01b815260040160405180910390fd5b6103446005826108ba565b61034d81610a68565b50565b6103586120d0565b610363600583610ac0565b92915050565b610374600533610c79565b15801561038c57506001546001600160a01b03163314155b156103aa5760405163148fe22160e11b815260040160405180910390fd5b6001600160a01b0382166103d15760405163e6c4247b60e01b815260040160405180910390fd5b805f036103f15760405163162908e360e11b815260040160405180910390fd5b5f6103ff6005868685610c9a565b90508061041f57604051633303523160e11b815260040160405180910390fd5b5f61042b600587610ee3565b6040516001600160a01b0386166024820152604481018590529091505f9060640160408051601f19818403018152918152602080830180516001600160e01b031663a9059cbb60e01b17905290519192505f9161048e91899184918691016126d8565b60408051808303601f19018152600180845283830190925292505f9190816020015b60608152602001906001900390816104b057905050905083815f815181106104da576104da61270f565b60209081029190910101526040805160018082528183019092525f918160200160208202803683370190505090505f5f1b815f8151811061051d5761051d61270f565b60209081029190910101526040805160018082528183019092525f91816020015b606081526020019060019003908161053e57905050905083815f815181106105685761056861270f565b602090810291909101015260405163cef6d20960e01b81526001600160a01b037f0000000000000000000000000000000000000000000000000000000000000000169063cef6d209906105c39086908690869060040161277d565b5f604051808303815f87803b1580156105da575f5ffd5b505af11580156105ec573d5f5f3e3d5ffd5b506105ff9250600591508d90508a610f90565b61060c8b8a8c8b33610fe5565b5050505050505050505050565b610624600533610c79565b15610642576040516340803a5f60e11b815260040160405180910390fd5b6001600160a01b0384166106695760405163e6c4247b60e01b815260040160405180910390fd5b825f036106895760405163162908e360e11b815260040160405180910390fd5b5f61069660028989611065565b9050806106b657604051633303523160e11b815260040160405180910390fd5b6040805160e0810182528781526001600160a01b03871660208201529081018590525f60608201526080810185905260a0810184905260c081018390526106ff60053383611107565b61070c338a898888611282565b505050505050505050565b60606103636005836112e1565b61072c61213a565b61036360028361161b565b60606107436005611672565b905090565b5f610752336116d6565b61075e600284846116ec565b905061036381848461176a565b606061074360056117cb565b5f610363600583610c79565b5f805461078f906127dd565b80601f01602080910402602001604051908101604052809291908181526020018280546107bb906127dd565b80156108065780601f106107dd57610100808354040283529160200191610806565b820191905f5260205f20905b8154815290600101906020018083116107e957829003601f168201915b505050505081565b336001600160a01b038816146108375760405163148fe22160e11b815260040160405180910390fd5b610848600588888888888888611a2e565b5f610854600589610ac0565b60208101518051604082015160a090920151929350610875928b9290611bee565b5050505050505050565b60608060608061088f6005611c5a565b935093509350935090919293565b6108a6336116d6565b6108b1600282612007565b61034d8161204b565b6001600160a01b038181165f90815260208490526040902054166108f15760405163148fe22160e11b815260040160405180910390fd5b6001600160a01b0381165f90815260028301602052604081205460018085015491929161091e9190612829565b90508082146109a9575f84600101828154811061093d5761093d61270f565b5f918252602090912001546001860180546001600160a01b03909216925082918590811061096d5761096d61270f565b5f91825260208083209190910180546001600160a01b0319166001600160a01b0394851617905592909116815260028601909152604090208290555b836001018054806109bc576109bc61283c565b5f828152602080822083015f1990810180546001600160a01b031990811690915593019093556001600160a01b038616815260028701835260408082208290559287905291822080549091168155906001820181610a1a8282612166565b6001820180546001600160a01b03191690555f60028301819055600383018190556004830181905560058301819055610a57906006840190612166565b5050600882015f9055505050505050565b6040516001600160a01b038216907f0000000000000000000000000000000000000000000000000000000000000000907f6b5a0b0273f12efdccbc476719cc4bc75e376ca065638168d7c671b98f803cad905f90a350565b610ac86120d0565b6001600160a01b038083165f9081526020858152604091829020825160608101845281549094168452825160e081019093526001810180549193928501929182908290610b14906127dd565b80601f0160208091040260200160405190810160405280929190818152602001828054610b40906127dd565b8015610b8b5780601f10610b6257610100808354040283529160200191610b8b565b820191905f5260205f20905b815481529060010190602001808311610b6e57829003601f168201915b505050918352505060018201546001600160a01b03166020820152600282015460408201526003820154606082015260048201546080820152600582015460a082015260068201805460c090920191610be3906127dd565b80601f0160208091040260200160405190810160405280929190818152602001828054610c0f906127dd565b8015610c5a5780601f10610c3157610100808354040283529160200191610c5a565b820191905f5260205f20905b815481529060010190602001808311610c3d57829003601f168201915b5050505050815250508152602001600882015481525050905092915050565b6001600160a01b039081165f90815260209290925260409091205416151590565b6001600160a01b038084165f90815260208681526040808320815160608101835281549095168552815160e08101909252600181018054949586959094929392850192919082908290610cec906127dd565b80601f0160208091040260200160405190810160405280929190818152602001828054610d18906127dd565b8015610d635780601f10610d3a57610100808354040283529160200191610d63565b820191905f5260205f20905b815481529060010190602001808311610d4657829003601f168201915b505050918352505060018201546001600160a01b03166020820152600282015460408201526003820154606082015260048201546080820152600582015460a082015260068201805460c090920191610dbb906127dd565b80601f0160208091040260200160405190810160405280929190818152602001828054610de7906127dd565b8015610e325780601f10610e0957610100808354040283529160200191610e32565b820191905f5260205f20905b815481529060010190602001808311610e1557829003601f168201915b5050509190925250505081526008919091015460209091015280519091506001600160a01b0316610e66575f915050610edb565b836001600160a01b03168160200151602001516001600160a01b031614610e90575f915050610edb565b5f816020015160a00151118015610eae5750806020015160a0015142115b15610ebc575f915050610edb565b828160200151608001511015610ed5575f915050610edb565b60019150505b949350505050565b6001600160a01b0381165f908152602083905260409020600701805460609190610f0c906127dd565b80601f0160208091040260200160405190810160405280929190818152602001828054610f38906127dd565b8015610f835780601f10610f5a57610100808354040283529160200191610f83565b820191905f5260205f20905b815481529060010190602001808311610f6657829003601f168201915b5050505050905092915050565b6001600160a01b0382165f9081526020849052604081206004810180546001909201928492610fc0908490612850565b9250508190555081816004015f828254610fda9190612829565b909155505050505050565b604080516001600160a01b0385811682526020820185905283811692820192909252818616918716907f0000000000000000000000000000000000000000000000000000000000000000907f9070bb3a694dd00c863ca8d5bdf89084c58c23d88b36ee099f51a19143515897906060015b60405180910390a45050505050565b5f82815260208490526040812060038101548203611086575f915050611100565b600281015460ff161561109c575f915050611100565b828160010154146110b0575f915050611100565b5f81600401541180156110c65750806004015442115b156110d4575f915050611100565b6002018054600160ff1991821681179092555f8481528683016020526040902080549091168217905590505b9392505050565b6001600160a01b03821661112e5760405163e6c4247b60e01b815260040160405180910390fd5b6001600160a01b038281165f908152602085905260409020541615611166576040516340803a5f60e11b815260040160405180910390fd5b604080516060810182526001600160a01b03848116808352602080840186815242858701525f92835290889052939020825181546001600160a01b03191692169190911781559151805191928392909190600183019081906111c890826128af565b5060208201516001820180546001600160a01b0319166001600160a01b0390921691909117905560408201516002820155606082015160038201556080820151600482015560a0820151600582015560c0820151600682019061122b90826128af565b505050604091820151600890910155600180860180546001600160a01b039096165f8181526002909801602090815293882087905591860181558652942090920180546001600160a01b0319169093179092555050565b83856001600160a01b03167f00000000000000000000000000000000000000000000000000000000000000007f9766cea532a2cc0b2a583e4b3f39b07f35ef58a248c8efd11a997197353e13e886868660405161105693929190612969565b60018201546060905f805b8281101561136f575f86600101828154811061130a5761130a61270f565b5f9182526020808320909101548851898301206001600160a01b03909116808452918a905260409283902092519193509161134b916001919091019061298d565b6040518091039020036113665782611362816129fe565b9350505b506001016112ec565b50806001600160401b038111156113885761138861230e565b6040519080825280602002602001820160405280156113c157816020015b6113ae6120d0565b8152602001906001900390816113a65790505b5092505f805b83811015611611575f8760010182815481106113e5576113e561270f565b5f91825260208083209091015489518a8301206001600160a01b03909116808452918b9052604092839020925191935091611426916001919091019061298d565b604051809103902003611608576001600160a01b038082165f90815260208a8152604091829020825160608101845281549094168452825160e08101909352600181018054919392850192918290829061147f906127dd565b80601f01602080910402602001604051908101604052809291908181526020018280546114ab906127dd565b80156114f65780601f106114cd576101008083540402835291602001916114f6565b820191905f5260205f20905b8154815290600101906020018083116114d957829003601f168201915b505050918352505060018201546001600160a01b03166020820152600282015460408201526003820154606082015260048201546080820152600582015460a082015260068201805460c09092019161154e906127dd565b80601f016020809104026020016040519081016040528092919081815260200182805461157a906127dd565b80156115c55780601f1061159c576101008083540402835291602001916115c5565b820191905f5260205f20905b8154815290600101906020018083116115a857829003601f168201915b50505050508152505081526020016008820154815250508684815181106115ee576115ee61270f565b60200260200101819052508280611604906129fe565b9350505b506001016113c7565b5050505092915050565b61162361213a565b505f9081526020918252604090819020815160a08101835281548152600182015493810193909352600281015460ff161515918301919091526003810154606083015260040154608082015290565b6060816001018054806020026020016040519081016040528092919081815260200182805480156116ca57602002820191905f5260205f20905b81546001600160a01b031681526001909101906020018083116116ac575b50505050509050919050565b60015461034d906001600160a01b03168261209a565b6002830180549081905f6116ff836129fe565b90915550506040805160a08101825282815260208082019586525f828401818152426060850190815260808501978852868352989092529290922090518155935160018501555160028401805460ff1916911515919091179055925160038301555160049091015590565b81837f00000000000000000000000000000000000000000000000000000000000000007feac0302ebf2f8a090be76a83aa8e101099bbdde43768142ad203b2761f871145846040516117be91815260200190565b60405180910390a4505050565b6001810154606090806001600160401b038111156117eb576117eb61230e565b60405190808252806020026020018201604052801561182457816020015b6118116120d0565b8152602001906001900390816118095790505b5091505f5b81811015611a2757835f015f85600101838154811061184a5761184a61270f565b5f9182526020808320909101546001600160a01b039081168452838201949094526040928301909120825160608101845281549094168452825160e0810190935260018101805491939285019291829082906118a5906127dd565b80601f01602080910402602001604051908101604052809291908181526020018280546118d1906127dd565b801561191c5780601f106118f35761010080835404028352916020019161191c565b820191905f5260205f20905b8154815290600101906020018083116118ff57829003601f168201915b505050918352505060018201546001600160a01b03166020820152600282015460408201526003820154606082015260048201546080820152600582015460a082015260068201805460c090920191611974906127dd565b80601f01602080910402602001604051908101604052809291908181526020018280546119a0906127dd565b80156119eb5780601f106119c2576101008083540402835291602001916119eb565b820191905f5260205f20905b8154815290600101906020018083116119ce57829003601f168201915b5050505050815250508152602001600882015481525050838281518110611a1457611a1461270f565b6020908102919091010152600101611829565b5050919050565b6001600160a01b038781165f90815260208a9052604090205416611a655760405163148fe22160e11b815260040160405180910390fd5b85515f03611a865760405163430f13b360e01b815260040160405180910390fd5b6001600160a01b038516611aad5760405163e6c4247b60e01b815260040160405180910390fd5b835f03611acd5760405163162908e360e11b815260040160405180910390fd5b6001600160a01b0387165f90815260208990526040902060010180611af288826128af565b506001810180546001600160a01b0319166001600160a01b03881617905560038101545f60ff86168103611b3757868360020154611b309190612850565b9050611ba2565b8560ff16600103611b77578683600201541015611b675760405163162908e360e11b815260040160405180910390fd5b868360020154611b309190612829565b8560ff16600203611b89575085611ba2565b60405163162908e360e11b815260040160405180910390fd5b60028301819055818110611bc457611bba8282612829565b6004840155611bcb565b5f60048401555b6005830185905560068301611be085826128af565b505050505050505050505050565b836001600160a01b03167f00000000000000000000000000000000000000000000000000000000000000007f3f55b436029dbcdc730bf5abe04edcd81bcf8b8168b00e219f984831e1f1ca85858585604051611c4c93929190612969565b60405180910390a350505050565b6001810154606090819081908190806001600160401b03811115611c8057611c8061230e565b604051908082528060200260200182016040528015611ca9578160200160208202803683370190505b509450806001600160401b03811115611cc457611cc461230e565b604051908082528060200260200182016040528015611cf757816020015b6060815260200190600190039081611ce25790505b509350806001600160401b03811115611d1257611d1261230e565b604051908082528060200260200182016040528015611d3b578160200160208202803683370190505b509250806001600160401b03811115611d5657611d5661230e565b604051908082528060200260200182016040528015611d7f578160200160208202803683370190505b5091505f5b81811015611ffe575f876001018281548110611da257611da261270f565b5f9182526020808320909101546001600160a01b039081168084528b83526040808520815160608101835281549094168452815160e08101909252600181018054939750939490939085019282908290611dfb906127dd565b80601f0160208091040260200160405190810160405280929190818152602001828054611e27906127dd565b8015611e725780601f10611e4957610100808354040283529160200191611e72565b820191905f5260205f20905b815481529060010190602001808311611e5557829003601f168201915b505050918352505060018201546001600160a01b03166020820152600282015460408201526003820154606082015260048201546080820152600582015460a082015260068201805460c090920191611eca906127dd565b80601f0160208091040260200160405190810160405280929190818152602001828054611ef6906127dd565b8015611f415780601f10611f1857610100808354040283529160200191611f41565b820191905f5260205f20905b815481529060010190602001808311611f2457829003601f168201915b5050505050815250508152602001600882015481525050905081888481518110611f6d57611f6d61270f565b6001600160a01b03909216602092830291909101820152810151518751889085908110611f9c57611f9c61270f565b6020026020010181905250806020015160400151868481518110611fc257611fc261270f565b602002602001018181525050806020015160a00151858481518110611fe957611fe961270f565b60209081029190910101525050600101611d84565b50509193509193565b5f818152602083905260408120600381015490910361203957604051633303523160e11b815260040160405180910390fd5b600201805460ff191660011790555050565b60405181907f0000000000000000000000000000000000000000000000000000000000000000907ffad31d720548f187232a7129ee9174dc8158ab884c973b99093de4dfc7eca799905f90a350565b806001600160a01b0316826001600160a01b0316146120cc57604051637bfa4b9f60e01b815260040160405180910390fd5b5050565b60405180606001604052805f6001600160a01b0316815260200161212e6040518060e00160405280606081526020015f6001600160a01b031681526020015f81526020015f81526020015f81526020015f8152602001606081525090565b81526020015f81525090565b6040518060a001604052805f81526020015f81526020015f151581526020015f81526020015f81525090565b508054612172906127dd565b5f825580601f10612181575050565b601f0160209004905f5260205f209081019061034d91905b808211156121ac575f8155600101612199565b5090565b80356001600160a01b03811681146121c6575f5ffd5b919050565b5f602082840312156121db575f5ffd5b611100826121b0565b5f81518084528060208401602086015e5f602082860101526020601f19601f83011685010191505092915050565b60018060a01b0381511682525f602082015160606020850152805160e060608601526122426101408601826121e4565b905060018060a01b036020830151166080860152604082015160a0860152606082015160c0860152608082015160e086015260a082015161010086015260c08201519150605f198582030161012086015261229d81836121e4565b915050604083015160408501528091505092915050565b602081525f6111006020830184612212565b5f5f5f5f608085870312156122d9575f5ffd5b6122e2856121b0565b93506122f0602086016121b0565b92506122fe604086016121b0565b9396929550929360600135925050565b634e487b7160e01b5f52604160045260245ffd5b5f82601f830112612331575f5ffd5b8135602083015f806001600160401b038411156123505761235061230e565b50604051601f19601f85018116603f011681018181106001600160401b038211171561237e5761237e61230e565b604052838152905080828401871015612395575f5ffd5b838360208301375f602085830101528094505050505092915050565b5f5f5f5f5f5f5f60e0888a0312156123c7575f5ffd5b873596506020880135955060408801356001600160401b038111156123ea575f5ffd5b6123f68a828b01612322565b955050612405606089016121b0565b93506080880135925060a0880135915060c08801356001600160401b0381111561242d575f5ffd5b6124398a828b01612322565b91505092959891949750929550565b5f60208284031215612458575f5ffd5b81356001600160401b0381111561246d575f5ffd5b610edb84828501612322565b5f602082016020835280845180835260408501915060408160051b8601019250602086015f5b828110156124d057603f198786030184526124bb858351612212565b9450602093840193919091019060010161249f565b50929695505050505050565b5f602082840312156124ec575f5ffd5b5035919050565b5f8151808452602084019350602083015f5b8281101561252c5781516001600160a01b0316865260209586019590910190600101612505565b5093949350505050565b602081525f61110060208301846124f3565b5f5f60408385031215612559575f5ffd5b50508035926020909101359150565b602081525f61110060208301846121e4565b5f5f5f5f5f5f5f60e0888a031215612590575f5ffd5b612599886121b0565b965060208801356001600160401b038111156125b3575f5ffd5b6125bf8a828b01612322565b9650506125ce604089016121b0565b945060608801359350608088013560ff811681146125ea575f5ffd5b925060a0880135915060c08801356001600160401b0381111561242d575f5ffd5b5f8151808452602084019350602083015f5b8281101561252c57815186526020958601959091019060010161261d565b608081525f61264d60808301876124f3565b828103602084015280865180835260208301915060208160051b840101602089015f5b838110156126a257601f1986840301855261268c8383516121e4565b6020958601959093509190910190600101612670565b505085810360408701526126b6818961260b565b935050505082810360608401526126cd818561260b565b979650505050505050565b606084901b6001600160601b03191681526014810183905281515f908060208501603485015e5f9201603401918252509392505050565b634e487b7160e01b5f52603260045260245ffd5b5f82825180855260208501945060208160051b830101602085015f5b8381101561277157601f1985840301885261275b8383516121e4565b602098890198909350919091019060010161273f565b50909695505050505050565b606081525f61278f6060830186612723565b82810360208401528085518083526020830191506020870192505f5b818110156127c95783518352602093840193909201916001016127ab565b505083810360408501526126cd8186612723565b600181811c908216806127f157607f821691505b60208210810361280f57634e487b7160e01b5f52602260045260245ffd5b50919050565b634e487b7160e01b5f52601160045260245ffd5b8181038181111561036357610363612815565b634e487b7160e01b5f52603160045260245ffd5b8082018082111561036357610363612815565b601f8211156128aa57805f5260205f20601f840160051c810160208510156128885750805b601f840160051c820191505b818110156128a7575f8155600101612894565b50505b505050565b81516001600160401b038111156128c8576128c861230e565b6128dc816128d684546127dd565b84612863565b6020601f82116001811461290e575f83156128f75750848201515b5f19600385901b1c1916600184901b1784556128a7565b5f84815260208120601f198516915b8281101561293d578785015182556020948501946001909201910161291d565b508482101561295a57868401515f19600387901b60f8161c191681555b50505050600190811b01905550565b606081525f61297b60608301866121e4565b60208301949094525060400152919050565b5f5f835461299a816127dd565b6001821680156129b157600181146129c6576129f3565b60ff19831686528115158202860193506129f3565b865f5260205f205f5b838110156129eb578154888201526001909101906020016129cf565b505081860193505b509195945050505050565b5f60018201612a0f57612a0f612815565b506001019056fea2646970667358221220f25fc71ec7d63fee7d3ebf621d7e538a6d770aa86cd7b7a6fc52bf81aae9f8e664736f6c634300081c0033",
  "linkReferences": {},
  "deployedLinkReferences": {},
  "immutableReferences": {
    "2136": [
      {
        "length": 32,
        "start": 560
      },
      {
        "length": 32,
        "start": 2680
      },
      {
        "length": 32,
        "start": 4112
      },
      {
        "length": 32,
        "start": 4751
      },
      {
        "length": 32,
        "start": 5998
      },
      {
        "length": 32,
        "start": 7162
      },
      {
        "length": 32,
        "start": 8274
      }
    ],
    "2143": [
      {
        "length": 32,
        "start": 663
      },
      {
        "length": 32,
        "start": 1418
      }
    ]
  },
  "inputSourceName": "project/contracts/Circle.sol",
  "buildInfoId": "solc-0_8_28-e84454ab50465bc05aee6b862264aa6de3997c8e"
}